:020000040800F2
:100000000000082499020008296E000801AB0008CE
:10001000296E0008296E0008296E00080000000003
:10002000000000000000000000000000296E000831
:10003000296E000800000000296E0008296E0008E3
:10004000296E0008296E0008296E0008296E000834
:10005000296E0008296E0008296E0008296E000824
:10006000296E0008296E0008296E00086D770008C7
:100070007B7700088977000897770008A577000844
:10008000B3770008C1770008296E0008296E0008C0
:10009000296E0008296E0008296E0008296E0008E4
:1000A000296E0008296E0008296E0008296E0008D4
:1000B0004D780008296E0008296E0008296E000896
:1000C000296E0008296E0008296E0008296E0008B4
:1000D000296E0008296E0008296E0008296E0008A4
:1000E000296E0008296E000800000000296E000833
:1000F000296E0008296E0008296E0008CF770008D5
:10010000296E0008296E0008296E0008296E000873
:10011000296E0008296E0008296E0008296E000863
:10012000DD770008EB770008F9770008077800080A
:1001300015780008296E0008296E0008296E00084D
:1001400000000000000000000000000000000000AF
:1001500023780008317800083F780008296E0008ED
:10016000296E0008296E0008296E0008296E000813
:10017000296E0008296E0008296E000800000000A2
:10018000296E0008296E0008296E0008296E0008F3
:10019000296E0008296E0008296E0008296E0008E3
:1001A000296E0008296E0008296E0008296E0008D3
:1001B000296E0008296E0008296E0008296E0008C3
:1001C000296E0008296E0008296E0008296E0008B3
:1001D000296E0008F1020008296E0008296E000847
:1001E000296E0008296E0008296E0008296E000893
:1001F000296E0008296E0008296E0008296E000883
:10020000296E0008296E0008296E0008296E000872
:10021000296E0008296E0008296E0008296E000862
:10022000296E0008296E0008296E000800000000F1
:10023000296E0008296E000800000000296E0008E1
:10024000296E0008A97400080B77000819770008C8
:1002500027770008357700084377000851770008B2
:100260005F770008296E0008296E0008296E0008D3
:10027000296E0008296E0008296E000800000000A1
:10028000296E0008296E0008296E00080000000091
:0802900000000000296E0008C7
:1002980006F0C9FD0E480F490022814201D004C072
:1002A800FBE70D480D490E4A814202D008CA08C032
:1002B800FAE70C484FF47001026842EA0102026052
:1002C800BFF34F8FBFF36F8F05F0F9FE00DE00001C
:1002D800400100244C1200240000002440010024A6
:1002E80010BF000888ED00E0F0B503AF2DE9000F5E
:1002F80087B0102643F60400C4F20806CCF20000CA
:100308007168019101421FD0102040F23809C0F2F3
:100318000C00C2F20049B060EFF3108872B6D9E958
:1003280036540020C9F8D80055B1A9682046884736
:10033800D9E93610C9E9365400291CBFC96888476D
:100348005FEAC87000D162B6706841F2000AC4F270
:10035800080AC00600F1AC800198400357D54FF653
:100368001800CFF6FF705AF800001FFA80F9B9F1AB
:10037800000F4CD040F23800AAF5DF66C2F2004008
:10038800051D002405E02036183501345FEA5909B7
:100398003DD05FEAC970F6D0102C80F00182306839
:1003A8003060000613D54FF63403EFF3108072B6B1
:1003B800CFF6FF7301225AF80310A240C00721EAC2
:1003C8000202C2EA01014AF8031000D162B6092C00
:1003D80080F0D681EFF31080039072B655E901B82A
:1003E800002045F8040CBBF1000F0BD0DBF8081017
:1003F8004046884755E9011045E901B800291CBF66
:10040800C96888470398C007BDD162B6BBE70198A1
:10041800000349D54FF61800CFF6FF705AF80000D0
:100428005FEA104B40D040F23800AAF59F66C2F24E
:10043800004000F10805002405E020361835013495
:100448005FEA5B0B30D05FEACB70F6D0102C80F0FF
:10045800AF8130683060000708D540F238000121CC
:10046800C2F20040BFF35F8F80F8E810092C80F0DB
:100478008F81EFF3108872B6D5E900A90020BAF190
:10048800000F28600BD0DAF8081048468847D5E9ED
:100498000010C5E900A900291CBFC96888475FEAA0
:1004A800C870CAD162B6C8E707B0BDE8000FF0BD92
:1004B80040F238044FF6FF78C2F200444FF00109C9
:1004C8000BE0DAF80000C4F8E000DAF80000C4F83D
:1004D800E4007068C0067FF53FAF306900F00F0593
:1004E800092D80F02B81C0F30A1BC0F3434002287A
:1004F80025D00628EDD1BBF1080F40F02781002D4B
:1005080040F031814FF610100021CFF6FF70C1F690
:10051800F8715AF800000842D3D0306869F34A10DD
:10052800306030688006CCD53068800644BF3068BB
:100538005FEA8060C5D530688006F2D4C1E705EB74
:10054800450004EBC002908ABFF35F8F404579D025
:1005580040F24100C0F2000006F068FC40F20400DE
:100568000221C0F2000027F8220CA7F1220006F0B1
:1005780028FE06A80421069506F023FE06F09BFD3A
:10058800BBF1000FA5D00BF103008008411E032921
:1005980049D320F003010A1F0C2A09EB920123D347
:1005A80021F00302043ADAF80030DAF80030DAF819
:1005B8000030DAF80030DAF80030DAF80030DAF82B
:1005C8000030DAF80030DAF80030DAF80030DAF81B
:1005D8000030DAF80030DAF80030DAF80030DAF80B
:1005E8000030DAF80030DDD111F003011BD0DAF861
:1005F80000200129DAF80020DAF80020DAF80020D3
:1006080011D0DAF800200229DAF80020DAF8002000
:10061800DAF800201FBFDAF80010DAF80010DAF86C
:100628000010DAF8001010F003001CBFDAF8001010
:1006380001283FF44EAFDAF80010022818BFDAF8A4
:10064800000046E70DF11009BBF1000FCDE9022BC0
:100658004BD00298039C0569002D46D0DAF80000BB
:100668004FF004080490042C38BFA0462846494699
:1006780042460AF07AF8052C37D3A4EB080BA844B5
:10068800DAF8000004240490BBF1040F38BF5C467C
:100698004046494622460AF068F8BBF1050F24D3C4
:1006A800ABEB04064444DAF8000004250490042E59
:1006B80038BF3546204649462A460AF056F8052EE0
:1006C80013D32C44DAF80000A6EB0508042604909E
:1006D800B8F1040F38BF46462046494632460AF06C
:1006E80044F8A519B8EB0604B8D1BFF35F8FDDE96C
:1006F8000250A882EFF3108872B6D5E90264002090
:10070800A86056B1B16820468847D5E90210C5E906
:10071800026400291CBFC9688847102640F23804C3
:100728005FEAC870C4F20806C2F200444FF6FF78C8
:100738004FF001097FF4CDAE62B6CAE640F246003A
:10074800C0F2000006F083FB06F0ECFB40F2550017
:10075800C0F2000006F06AFB584604F091FD06F06E
:10076800AAFC06F0DFFB40F25400C0F2000006F0DD
:100778005DFB284604F084FD06F09DFC06F0D2FBE4
:100788004BF24062C0F600022046092105F0C6FE81
:100798004BF23062C0F600022046092105F0BEFE89
:1007A80040F24800C0F2000006F051FB06F0BAFB28
:1007B80040F24900C0F2000006F049FB06F0B2FB27
:1007C800F0B503AF2DE9000F81B08246407ADFE82B
:1007D80010F0050015012701730063009AF808104E
:1007E800DAF80400CAF80000DFE801F003EEA6BF5B
:1007F8007C00022180F824110021DAF8000080F83A
:100808002011DAF8000080F82111DAF8000080F8E9
:100818002511DAF80000D0F8001181B100EBC10110
:1008280000F1D80501F1E00455F8080F6968096975
:10083800884705F10800A042F6D1DAF80000D0F8A0
:10084800DC10002900F0B98000EB410100F1D40B65
:1008580001F1D4084FF00009002503E00135C34534
:1008680000F0AB800BF8029BDAF80000D0F800111A
:100878000029F3D000EBC10100F1D80601F1E00432
:1008880056F8080F002271684B6A2946984706F106
:100898000800A042F4D1E1E79AF81800E0B1032873
:1008A80040F0B2809AF81400C00724D04BF2887048
:1008B800C0F6000006F0AAFA9AF8180078B10328E2
:1008C80040F0A8809AF81400C00757D04BF278700F
:1008D800C0F6000006F09AFADAF80C0008E0DAF838
:1008E8000C0048E000212C308AF81810CAF80C00D7
:1008F8000021CAE90401DAF8000001218AF8181079
:100908008AF81410002180F82411DAF80000D0F8D1
:100918000011002951D000EBC10100F1D80401F108
:10092800E00554F8080F6168CA680021904704F18F
:100938000800A842F5D140E0002180F82011DAF83B
:100948000000D0F80011C1B300EBC10100F1D804D8
:1009580001F1E00554F8080F6168CA690021904761
:1009680004F10800A842F5D127E000212C308AF8CC
:100978001810CAF80C000021CAE90401DAF80000CE
:1009880001218AF818108AF81410022180F824111D
:10099800DAF80000D0F8001179B100EBC10100F1DC
:1009A800D80401F1E00554F8080F6168CA6801210C
:1009B800904704F10800A842F5D101208AF80900FF
:1009C80001B0BDE8000FF0BD012180F82011DAF870
:1009D8000000D0F800110029EFD000EBC10100F1B0
:1009E800D80401F1E00554F8080F6168CA690121CB
:1009F800904704F10800A842F5D1DEE74BF2E42065
:100A0800C0F6000006F002FA4BF2B870C0F600001B
:100A180006F0FCF94BF2A870C0F6000006F0F6F9F3
:100A2800FEDE80B56F4680BD80B56F46002080BD74
:100A380080B56F4680BD80B56F4680BDF0B503AF09
:100A48002DE9000F81B00446007F8846DFE810F0EA
:100A58000500A801B60111000F0094E8070004F191
:100A68000C0307C301898A4205D900204CE1A66A14
:100A780062E0A56A0DE00146234611F80A2F02F04C
:100A88007F0243F8182F50F8045B03F108025B61FA
:100A980023C2D8E90010EFF3108972B6D5E9006ACD
:100AA80000222A6026B18E4208BF824500F0998054
:100AB800096888470246D5E90030C5E90021002BBE
:100AC8001CBFD9688847002E1EBFF168504688476A
:100AD8005FEAC97000D162B6E06A0068102880F049
:100AE8004F81216A096801EB40110320D1F80029E0
:100AF800D1F81819B2F1FF3FC8BF0220110458BF3E
:100B08000120022808D0032864D10321032021777B
:100B180001B0BDE8000FF0BD606900286CD0D4E9D1
:100B2800032104F11805131D52F80A6BC4E90A6180
:100B3800C4E90832C4E90C05D8E90010EFF31088BD
:100B480072B6D6E90059002232601DB18D4208BF45
:100B580081454CD0096888470246D6E90030C6E985
:100B68000021002B1CBFD9688847002D1EBFE968EB
:100B7800484688475FEAC87000D162B6606B026871
:100B8800102A80F00581216A0B6803EB4212D2F823
:100B98001829236B033392B2B2EB930F18D2EFF3F9
:100BA800108272B609680126D1F83438006800F05E
:100BB8000F0006FA00F01843C1F83408D00700D136
:100BC80062B603200421217701B0BDE8000FF0BD13
:100BD800606912E001210120217701B0BDE8000F12
:100BE800F0BD2E605FEAC9703FF475AF74E73560F9
:100BF8005FEAC870C1D0C1E70020EFF3108872B671
:100C0800A169102980F0D280D4E9035A03466A68A2
:100C180002EB411140F2014262F3DF43C1F810399F
:100C2800297B012913D16968D1F80828A369102BF9
:100C380080F0A68001EB4311D2054FF08052D1F825
:100C4800003958BF4FF000521A43C1F80029A16972
:100C5800102980F095806A6810F0030902EB4111B1
:100C6800D1F8002942F00442C1F800294FF6FC717E
:100C7800C7F6FF7100EA010619D000200AEB060149
:100C8800009068464A4609F070FDDDF800C0A0698A
:100C980010280FD2696801EB003000F580514EB37F
:100CA800301F00F00C030C2B0CD1524620E0A06939
:100CB8001028EFD340F24700C0F2000006F0C7F852
:100CC80006F030F9524652F8045B0D6043B1DAF889
:100CD8000420042B0A6005D1083E0AF1080207E047
:100CE800064605E0DAF808200C3E0A600AF10C0214
:100CF8000C280FD2B9F1000F18BFC1F800C05FEA85
:100D0800C87000D162B602200121217701B0BDE888
:100D1800000FF0BDA6F1100BA6F1200AA6F1300EC7
:100D28000020155883450D6002EB00056B680B60C9
:100D3800AB680B60EB680B601FBF2B690B606B69BE
:100D48000B601FBFAB690B60EB690B601FBF82456F
:100D58002B6A0B606B6A1FBF0B60AB6A0B60EB6A98
:100D68001CBF0B608645C5D02B6B40300B6086429C
:100D78006B6B0B60AB6B0B60EB6B0B60D1D1B9E7A6
:100D880040F24B00C0F2000006F061F806F0CAF825
:100D980040F24D00C0F2000006F059F806F0C2F823
:100DA8004BF29050C0F6000006F030F840F24E00CA
:100DB800C0F2000006F04BF806F0B4F8FEDEF0B51D
:100DC80003AF2DE9000F81B0804691F828000C464A
:100DD80028B1032840F0BB802169E56911E094E857
:100DE800015004F10C0900F1080600F10A0103465C
:100DF800043053F80C5B89E84B0004F11C0080E8D0
:100E0800205091F800A00021D2E90020EFF31089CA
:100E180072B6D5E9026BA9601EB1964208BF834538
:100E28003AD0116888470246D5E90230C5E902215F
:100E3800002B1CBFD9688847002E1EBFF168584692
:100E480088470AF07F005FEAC97100D162B61028AE
:100E580075D2E668316801EB4011D1F8001B09042E
:100E68000AD440F20110A8F80000012084F82800F4
:100E780001B0BDE8000FF0BDB5F814904FF6FF7B48
:100E8800D94510D1022088F80000032084F82800F2
:100E980001B0BDE8000FF0BDAE600AF07F005FEA68
:100EA800C971D3D0D3E7616A494508D20120A8F8AF
:100EB800000084F8280001B0BDE8000FF0BD4FEA3B
:100EC800401A2969206A4A4609F04FFCBFF35F8F30
:100ED800A5F814B0D4E90512EFF3108072B63368A0
:100EE8005344D3F8105B128805F060452A4402F594
:100EF8000022C3F8102B097801290FD131684FF06F
:100F08008053D1F808285144D1F8005BD20558BF66
:100F18004FF0005343EA0502C1F8002B3168C007BF
:100F28005144D1F8002B42F08062C1F8002B00D167
:100F380062B60020C8F8049088F8000095E740F2EF
:100F48004A00C0F2000005F082FF05F0EBFF4BF20B
:100F5800A050C0F6000005F059FFD4D480B56F4604
:100F680040F63061C2F20041896800296ED0C0B2F3
:100F7800DFE800F0510261024AF6C040C0F2D80032
:100F880081427BD34EF2C010C0F2E40081423CBFE4
:100F98000F2080BD42F20040C0F2F40081423CBF05
:100FA8000E2080BD47F28030C0F2061081423CBF5F
:100FB8000D2080BD44F6A010C0F21A1081423CBF3B
:100FC8000C2080BD42F60050C0F2311081423CBF77
:100FD8000B2080BD4AF24040C0F24C1081423CBF19
:100FE8000A2080BD43F20060C0F26E1081423CBF0F
:100FF800092080BD49F6E050C0F2A31081423CBFF1
:10100800082080BD44F600020620C0F2E812914292
:1010180038BF072080BD4CF27F30C0F2C910814232
:1010280084BF092080BD40F20B00C0F2000005F02B
:101038000EFF05F077FF4BF2C8504BF2D852C0F6BE
:101048000000C0F600020F2105F07CFA40F22600ED
:10105800C0F2000005F0EAFE4BF635300A21C0F672
:10106800000006F008FD4BF60C300521C0F6000024
:1010780006F001FD06F01FF805F054FF40F20A00E3
:10108800C0F2000005F0E3FE05F04CFF01680129FD
:1010980002D102210160FEDE80B56F464BF2E850B6
:1010A8004BF21062C0F60000C0F600024F2105F0B6
:1010B80026FA80B56F4682B04BF6FC210190C0F647
:1010C800000128300091694600F086FB02B080BD1F
:1010D80080B56F4640F240110022C2F2004181F80B
:1010E800C42B886280BD80B56F4640F24015044627
:1010F800C2F2004540F2011055E8061F002940F0F1
:10110800A08045E806010029F6D141F2BB00C0F6EF
:10111800000068622046FFF7DBFF2C622068BFF3FF
:101128005F8F06E00022BFF32F8FD207BFF35F8FD8
:1011380063D1E86154E8001F81420ED1BFF35F8F8D
:1011480044E80052002A4FF0000208BF4FF0FF3277
:10115800D207BFF35F8F07D050E00022BFF32F8F75
:10116800D207BFF35F8F49D1E96154E8000F884285
:101178000ED1BFF35F8F44E80052002A4FF00002FF
:1011880008BF4FF0FF32D207BFF35F8F07D034E0BC
:101198000022BFF32F8FD207BFF35F8F2DD1E861F5
:1011A80054E8001F81420ED1BFF35F8F44E800521C
:1011B800002A4FF0000208BF4FF0FF32D207BFF3FA
:1011C8005F8F07D01AE00022BFF32F8FD207BFF33B
:1011D8005F8F13D1E96154E8000F8842A2D1BFF3B1
:1011E8005F8F44E80052002A4FF0000208BF4FF01A
:1011F800FF32D207BFF35F8F9BD0084650B96068B3
:10120800411C06D04EF6007180B2CEF20001086093
:1012180000E040BF002500E020BFBFF35F8F54E827
:10122800000F44E800510029F9D10028BFF35F8F6F
:10123800F2D0C6694576416A88473046002EF8D113
:10124800EAE740F20900BFF32F8FC0F2000005F073
:10125800EDFD03F0F5FF05F02EFF05F063FEF0B598
:1012680003AF2DE900070E6A8046486816FA83F630
:10127800864204D940F24000C0F20000A1E091F893
:10128800280091F82E60043891F834A091F83A902B
:101298008D8DCC8CB1F81AE018BF20464C8E042EE8
:1012A80091F88EC018BF2844BAF1040F0E8FB1F818
:1012B80062A018BF204491F84050B9F1040FCC8FB8
:1012C80018BF3044042D91F84650B1F8446018BF57
:1012D8002044042D91F84C50B1F84A4018BF3044CE
:1012E800042D91F85250B1F8506018BF2044042DD5
:1012F80091F85850B1F8564018BF304491F85E60E4
:10130800042DB1F85C5018BF204491F86440043EA5
:1013180018BF2E46B1F86850042C91F86A4018BFDF
:101328005644B1F86E90042C91F8704018BF2E44C2
:10133800B1F87450042C91F8764018BF4E44B1F8B7
:101348007A90042C91F87C4018BF2E44B1F8805054
:10135800042C91F8824018BF4E44B1F88690042CB2
:10136800B1F88C4018BF2E4491F88850B1F818A0F5
:10137800042D03F1030518BF4E44BCF1040F1FFAF6
:1013880085FC18BF26440EEB9C052E44304480B2E1
:10139800504504D940F23F00C0F2000011E04C690A
:1013A8000A2C80F0B08044B1100612D004EB44003F
:1013B8005A2606EB4000602835D140F23E00C0F2C4
:1013C800000005F044FD042288F80C20BDE8000761
:1013D800F0BDA4EB84004FF000094FEA400E002056
:1013E80001EB090696F85E50042D48D00EEB09056E
:1013F800AC1DE2D096F86440042C43D015F10C04DF
:10140800DBD096F86A40042C41D015F11204D4D0F0
:1014180096F87040042C42D009F1180904301EEBEC
:101428000904DDD1C9E7A4EB84004FF000094FEAB5
:10143800400E012001EB090696F86450042D2BD0CC
:101448000EEB090515F10C04B7D096F86A40042C88
:101458002AD015F11204B0D096F87040042C27D089
:1014680015F11804A9D096F87640042C24D009F177
:10147800180904300EEB09040634DBD19DE706F1A8
:101488005A051CE006F1600540F0010017E006F17E
:10149800660540F0020012E006F160050FE006F173
:1014A8006C0540F003000AE006F16605013006E02D
:1014B80006F16C05023002E006F1720503304FEACE
:1014C8009C0609282A716E802B8025D288F80A008C
:1014D80000EB40008D681FFA83FE0C684FF0000C8B
:1014E8000E6A05EBC000A8F80830A51905610B695C
:1014F800764488F80BC00E62C8E9000388F80C200F
:10150800BDE80007F0BD4BF250630020C0F60003B1
:101518002146092204F082FF4BF260620921C0F6DD
:10152800000204F0FBFFF0B503AF2DE90007804689
:1015380091F8280091F82E60043891F834A091F8B9
:101548003A908D8DCC8CB1F81AC018BF20464C8EBD
:10155800042E91F88EE018BF2844BAF1040F0E8FBC
:10156800B1F862A018BF204491F84050B9F1040FB7
:10157800CC8F18BF3044042D91F84650B1F8446020
:1015880018BF2044042D91F84C50B1F84A4018BFB8
:101598003044042D91F85250B1F8506018BF2044DF
:1015A800042D91F85850B1F8564018BF304491F8BE
:1015B8005E60042DB1F85C5018BF204491F8644077
:1015C800043E18BF2E46B1F86850042C91F86A40C2
:1015D80018BF5644B1F86E90042C91F8704018BFAB
:1015E8002E44B1F87450042C91F8764018BF4E443C
:1015F800B1F87A90042C91F87C4018BF2E44B1F8C9
:101608008050042C91F8824018BF4E44B1F886905F
:10161800042CB1F88C4018BF2E4491F88850B1F8CA
:1016280018A0042D03F1030518BF4E44BEF1040FA2
:1016380018BF2644ACB2A5084FF0100E102D88BF75
:101648004FEA940E0CEB0E052E44304480B2504500
:1016580004D940F23F00C0F2000011E04C690A2CA6
:1016680080F09E8044B1100612D004EB440024267A
:1016780006EB40002A2834D140F23E00C0F20000B8
:1016880005F0E5FB042288F80C20BDE80007F0BD52
:10169800A4EB84004FF000094FEA400C002001EB56
:1016A800090494F82850042D46D00CEB0905AE1D0A
:1016B800E2D094F82E60042E40D015F10C06DBD051
:1016C80094F83460042E3DD01235D5D094F83A50B1
:1016D800042D3DD009F1180904301CEB0904DED1B2
:1016E800CAE7A4EB84004FF000094FEA400C012040
:1016F80001EB090494F82E50042D27D00CEB0905B2
:1017080015F10C06B8D094F83460042E24D015F1E5
:101718001206B1D094F83A60042E20D01835ABD018
:1017280094F84050042D1DD009F1180904300CEB31
:1017380009040634DCD19FE7243415E02A3440F04C
:10174800010011E0303440F002000DE02A340BE0D3
:10175800363440F0030007E03034013004E036341A
:10176800023001E03C34033009282271A4F802E079
:1017780023801ED2BE688D68096988F80B6040F026
:10178800800600EB400088F80A60A8F8083005EBEE
:10179800C000C8E9000188F80C20BDE80007F0BDCA
:1017A8004BF270630020C0F600032146092204F0C2
:1017B80035FE4BF260620921C0F6000204F0AEFE6D
:1017C80080B56F4682B04FF0FF3001900020009046
:1017D8006846FFF788FCD4D4F0B503AF2DE9000FB5
:1017E800ADF55D7D834690F89C0B0BF2C449CDF8AE
:1017F8008CB0CDE9199190B1032841F04087DBF80E
:1018080054068A46002800F0D6814FF00108DBF81C
:101818002497B9F1000F43F0D18303F0B5B9002440
:1018280040F63061ADF8A440C2F200412894CDE9F9
:101838002444CDE92644EFF31080119072B648791C
:10184800012801F022870120487141F20400C5F601
:101858000040016841F4C00141F0070101604BF606
:10186800A550C0F6000006F038FD44F200484EF2DC
:101878000B43C5F60208CEF20003D8F8E0004FF09B
:10188800020C4FF0100E4FF0200B40F00100C8F88A
:10189800E000D8F8E00040254FF0800A4FF4807649
:1018A80040F00200C8F8E000D8F8E0004FF4006902
:1018B80040F00400C8F8E000D8F8E00040F0080064
:1018C800C8F8E000D8F8E00040F01000C8F8E000E0
:1018D800D8F8E00040F02000C8F8E000D8F8E000B0
:1018E80040F04000C8F8E000D8F8E00040F0800080
:1018F800C8F8E000D8F8E00040F48070C8F8E000CC
:10190800D8F8E00040F40070C8F8E000D8F8E0002B
:1019180040F48060C8F8E0000020C5F602000168C5
:1019280061F070510160D0F800144FF0FF31C0F839
:101938000014D0F80028C0F80018D0F8002CC0F81F
:10194800001C41F20000C5F6020002680160D0F8F0
:101958000024C0F80014D0F80028C0F80018D0F807
:10196800002CC0F8001C42F20000C5F60200026814
:101978000160D0F80024C0F80014D0F80028C0F89E
:1019880000184EF20010CEF20000042183F87640D1
:10199800C0F810C04FF4805283F8774001610821E5
:1019A80083F8784001614FF4803183F87940C0F8BA
:1019B80010E083F87A40C0F810B083F87B400561E6
:1019C80083F87C40C0F810A083F87D4006611C7045
:1019D800C0F800905C7002604FF400529C70026086
:1019E8004FF48042DC7002604FF400421C710260C8
:1019F8005C7101604FF400319C7101604FF080719F
:101A080083F82440426083F82D4041604FF0007114
:101A180083F82E4041604FF0806183F82F40416089
:101A28004FF0006183F8304041604FF0805183F8F7
:101A38003140416083F83940C0F808E083F83A4003
:101A4800C0F808B00DF1A80B83F83B408560D8F8C2
:101A5800D81041F00101C8F8D810D8F8D81041F0D2
:101A68000201C8F8D810D8F8E01041F40011C8F8FD
:101A7800E0104FF400710560C0F800A00660016036
:101A88004FF4806101604FF4000101604FF48171EF
:101A980046600120ADF8D4100521ADF8E00040F211
:101AA80000408DF8D010DDE92712C8F20100BDF81A
:101AB800A430CDF8AE003120CDF8E62024AAADF848
:101AC800AC000320ADF8EA304FF00433CDF8FD3018
:101AD80040F20113CDF8E210C0F200338DF8EC00AB
:101AE80007CACDF8ED0044F618008DF8B2A0C5F687
:101AF8000200ADF801910BF1180ACDF8F5200BF1B1
:101B08000C098DF8DCC00622ADF8C0C0ADF8B4C031
:101B1800ADF8A840CDF8F930CDF8F11050F80C1C0C
:101B280062F3020140F80C1C50F8141C89040CD410
:101B380050F8141C89045CBF50F8141C5FEA8141FA
:101B480003D450F8141C8904EED59DF8FA504FF4CC
:101B580040420168DFE805F002534E5141F440412C
:101B680001600168890409D4016889045CBF0168BF
:101B78005FEA814102D401688904F2D540F220422B
:101B8800EFF3108172B6C5F600020126D368C907C3
:101B980066F30303D36000D162B6016889043FD4B9
:101BA800016889045CBF01685FEA814138D4016833
:101BB8008904F2D534E09BF860060BF5CC611391EB
:101BC800002801F04C84032840F0BA810BF26460CD
:101BD80016900BF26C6017909BF86C06DFE810F01B
:101BE8000600680E6718D30EED0E6303169800689A
:101BF80001F094BE4FF4004201E04FF4804221F41A
:101C08004041114301600168890409D401688904CD
:101C18005CBF01685FEA814102D401688904F2D59A
:101C28009DF8FB20D8F80000042A1CBF20F01800FB
:101C380040EAC20040F00100C8F80000D8F80000EF
:101C480040070CD4D8F8000040075CBFD8F8000063
:101C58005FEA407003D4D8F800004007EED5D8F802
:101C6800100020F00700C8F81000D8F8100010F095
:101C7800380F0ED0D8F8100010F0380F1CBFD8F865
:101C8800100010F0380F04D0D8F8100010F0380FFA
:101C9800EBD1042A2DD100249DF8DC00CDE91D25C7
:101CA800022833D036991F91D8F8001021F48021EA
:101CB80001EB8040C8F80000D8F8000040F48030FC
:101CC800C8F80000D8F8000080030BD4D8F800004A
:101CD800800307D4D8F80000800303D4D8F80000A4
:101CE8008003EFD501259DF8F9102191022919D11A
:101CF80051E04BF678000124C0F6000050F822C0ED
:101D08009DF8DC00CDE91D250228CBD1D8F80000CC
:101D1800002520F48030C8F800009DF8F9102191C2
:101D2800022938D0D8F8000040F48050C8F80000E4
:101D3800D8F8000080040CD4D8F8000080045CBFF8
:101D4800D8F800005FEA804003D4D8F80000800487
:101D5800EED52198C0071ED04BF6A0502294C0F6AD
:101D680000002E46EFF3108572B6644606F0B5FA09
:101D7800E80700D162B648F200400222C4F200002F
:101D8800A4464168354662F31D714160016841F01F
:101D980060010160229CD8F8000000269DF8E03020
:101DA80020F08000012B40EAC310C8F800004FF073
:101DB800000011D1D8F80010C9050CD4D8F80010CB
:101DC800C9055CBFD8F800105FEAC15103D4D8F840
:101DD8000010C905EED50126BDF8A8100322CDE9EB
:101DE800830201200229CDF81CA2CDE985B9829091
:101DF8001C9305D1BDF8B400022819D00220CB46A7
:101E080082AA0C3252F820209BF806001388022B75
:101E18001CBF9279824241F07884022908D0BDF82B
:101E2800C01002291CBF9DF8C610814241F06D8484
:101E380040F60010A346C0F23D00D094CDE9D4602E
:101E4800D0AC1F982AAA002123460D95CDE9D2507F
:101E5800D6A86546CDF844C306F096FAAEA8012187
:101E68004A46234606F090FA82A8022152462346A3
:101E780006F08AFA9DF8FC30032B01F26E84DFE845
:101E880003F002291222AE46BBF1000F29D140F21D
:101E98002F00C0F2000004F0C9FF08F03FF905F078
:101EA8000AF905F03FF8DDF87CE00D98C8B940F272
:101EB8002E00C0F2000004F0B9FF08F02FF905F079
:101EC800FAF805F02FF8D698002801F04E84DDF8CE
:101ED8005CE306E040F6001E002EC0F23D0E01F065
:101EE80050849DF801510F2D01F257841E9E4BF628
:101EF80068004BF6B8014BF68802C0F60000C0F641
:101F08000001C0F6000251F8261052F826A0B1468A
:101F180050F826007646DFE815F03800400C400CF3
:101F2800400C400C400C400C400C10002D003300BD
:101F380027002A003600300024004FEA5E0624E01D
:101F48009BF86C060BF26C64DFE810F0F60C0500E9
:101F5800B116F11502164BF20040C0F6000004F06D
:101F680055FF4FEA5E2610E04FEA1E160DE04FEAD5
:101F78009E160AE04FEA9E0607E04FEA1E2604E096
:101F88004FEADE0601E04FEADE16864201F285835B
:101F98009DF802410F2C01F20084F446DFE814F0AA
:101FA8002700FD0BFD0BFD0BFD0BFD0BFD0BFD0BCA
:101FB80010001C0022001600190025001F00130045
:101FC8004FEA5E0C13E04FEA5E2C10E04FEA1E1C4D
:101FD8000DE04FEA9E1C0AE04FEA9E0C07E04FEA2C
:101FE8001E2C04E04FEADE0C01E04FEADE1C8C45B3
:101FF80001F25B839DF8FD10072901F27E83E34619
:10200800DFE811F029007B0B7B0B7B0B0800270016
:102018003F000F004FEA5C0B9DF8E160012E1ED0D7
:1020280005E04FEA1C1B9DF8E160012E17D0072937
:1020380001F27383CDF880C0DFE811F02D006F0B3B
:102048006F0B6F0B2D0020002A0008004FEADC0000
:1020580020E04FEA9C0B9DF8E160012EE7D10729AB
:1020680001F25B83CDF880C0DFE811F01500570B53
:10207800570B570B15001500080012004FEA5C00BB
:1020880008E04FEADC0B9DF8E160012EE7D0CEE7CF
:102098004FEA9C002090D34501F20F839DF8FE2063
:1020A800072A01F22A83CDF888C0DFE812F014006D
:1020B800260B260B260B08000E0011000B004FEA1A
:1020C8005C0007E04FEA1C1004E04FEA9C0001E0C6
:1020D8004FEADC0022901B946EB1072A01F21D839F
:1020E8006446DFE812F01E001A0B1A0B1A0B1E00CA
:1020F8001E0016001900072A01F20F836446DFE864
:1021080012F010000C0B0C0B0C0B100008000B004D
:102118000E004FEA5C0404E04FEA9C0401E04FEA39
:10212800DC04229814945045189101F2CE829DF84F
:10213800FF40072C01F2E1826146DFE814F013004A
:10214800DE0ADE0ADE0A08000E0011000B004FEA64
:102158005C0107E04FEA1C1104E04FEA9C0101E032
:102168004FEADC015145CDE915B4179201F2B58269
:1021780034469DF80061072E01F2BF82E346DFE88E
:1021880016F01300BC0ABC0ABC0A08000E001100B5
:102198000B004FEA5C0B07E04FEA1C1B04E04FEA18
:1021A8009C0B01E04FEADC0BD34501F29E82CDE99E
:1021B80012B1DFE809F0025D243B41F68150C0F21C
:1021C8002C4084455AD343F60130C0F65800844564
:1021D8005DD34EF24100C0F60630844560D345F623
:1021E8008100C0F68440844574D343F6412004221C
:1021F8002021C0F66950844538BF032276E043F6B3
:10220800C130C0F24730844538D347F28170C0F2FC
:102218008E6084453BD34BF24130C0F6D5108445DF
:102228003ED34FF60100C0F659505AE04AF24150E9
:10223800C0F2AE20844521D344F68120C0F25D501F
:10224800844524D34EF6C170C0F60B00844527D3CD
:1022580049F20150C0F6BA20844545D34FF6010033
:10226800C0F65950844581F0E682202104223DE0E1
:1022780041F68150C0F22C40844502D20022002150
:1022880034E043F60130C0F65800844502D21021EC
:1022980001222BE04EF24100C0F60630844513D2ED
:1022A8001021022222E09BF88E060BF28E68DFE8EE
:1022B80010F00500050BFE14F208DB08D9E96C02E2
:1022C800DBF870C601F0EABB45F68100C0F6844031
:1022D800844502D22021022208E043F64120C0F6BC
:1022E8006950844581F0A7822021032242F2000030
:1022F800CDF878E0C5F2002011430160016801F0D3
:10230800070191420ED0016801F0070191421EBFFA
:10231800016801F00701914204D0016801F007014A
:102328009142EBD19DF8D4E00121DFE81EF01600C0
:1023380004001000FE099DF8D090B9F1050F01F0D6
:10234800298133980021002818BF012008E09DF852
:10235800D500002801F0F18100219DF8D0900120DE
:102368000E90D8F8000440F48070C8F80004D8F83B
:102378000004C0050CD4D8F80004C0055CBFD8F828
:1023880000045FEAC05003D4D8F80004C005EED5B5
:102398009DF8D500B346CDE90F14B0B1D8F8740054
:1023A80040F00100C8F87400D8F8740080070CD415
:1023B800D8F8740080075CBFD8F874005FEA8070B2
:1023C80003D4D8F874008007EED5D8F87000BEFAA8
:1023D8008EF6B9F105014FF001044FEA561618BF01
:1023E8000121C0F3012224EA000AA2EB0E0286EAC8
:1023F800D036B2FA82F281EA0A015209324011401B
:1024080000F0040284EA9202B9F10404B4FA84F4F4
:102418004FEA541482EA040201EA020129D240F286
:1024280000244FEAC902C0F20134C0F3C10024FA03
:1024380002F2D2B2801A1B9AB0FA80F04009014227
:1024480019D1D8F8700040F48030C8F870004BF605
:102458009800D8F87010C0F6000050F8290021F450
:102468008031C8F87010D8F8701021F018010843AE
:1024780015E01B9A11B1D8F870003EE0D8F870004A
:10248800B9F1050F40F48030C8F87000D8F8700032
:1024980020F48030C8F870001CD0D8F870000121F2
:1024A80020F00400B9F1040F08BF05210843C8F85B
:1024B8007000D8F8700080070CD4D8F87000800736
:1024C8005CBFD8F870005FEA807003D4D8F8700059
:1024D8008007EED5BEF1000F0DD0D8F87000810648
:1024E80001F1338148F22031884340EA0E2000F59B
:1024F8000040C8F87000D8F87000D8F8180040F606
:102508007F718843169940EA052040EA011010447B
:10251800C8F81800D8F81800C0F30320A84211D052
:10252800D8F81800C0F30320A8421EBFD8F8180036
:10253800C0F30320A84205D0D8F81800C0F3032040
:10254800A842E7D1D8F81C00189920F4EE6040EAB8
:102558000110179940EA0120C8F81C00D8F820009B
:1025680020F0700040EA0B10C8F82000D8F81000DE
:10257800109920F4004040EAC130C8F81000D8F89B
:10258800100020F007001844C8F81000D8F8100010
:10259800C0F3C200984211D0D8F81000C0F3C200AE
:1025A80098421EBFD8F81000C0F3C200984205D068
:1025B800D8F81000C0F3C2009842E7D11D9804284B
:1025C80002BFD8F8000020F00100C8F800001C9AEB
:1025D8002198022811D1EFF3108072B6D8F8EC10C8
:1025E800C00721F00201C8F8EC1000D162B6D8F893
:1025F800000020F48050C8F8000002B340F22040E8
:10260800EFF3108172B6C5F600004FF6FC7302684E
:10261800CFF6FE73C90702EA030202F10102026063
:1026280000D162B60168C90509D40168C9055CBF53
:1026380001685FEAC15102D40168C905F2D59DF865
:10264800E200BCF1000F9DF8E3109DF8E4209DF82E
:10265800E530D8F8706026F4407646EA0121C8F8DB
:102668007010D8F84C104FF6CC76CCF6FE769DF864
:10267800E64001EA06019DF8F25011449DF8F16028
:1026880041EA03719DF8E72041EA041141EA00405C
:10269800C8F84C00D8F8500048F63861CCF6C87134
:1026A8009DF8F03000EA01009DF8EF4040EA027022
:1026B8009DF8E810204440EA831040EA015040EABF
:1026C800063040EA0540C8F85000D8F854004CF6E7
:1026D800C0459DF8E910C8F60F759DF8EA2000EA94
:1026E80005009DF8F34040EA81509DF8EB3040EA40
:1026F80002309DF8F41040EA04709DF8EC6040EA5E
:1027080003209DF8F55040EAC10028444EF2F80530
:1027180000EB0650C8F85400D8F85800C8F6FC7505
:102728009DF8ED109DF8EE2000EA05009DF8F630C2
:1027380040EA01409DF8F76040EA02209DF8F84021
:1027480040EA8320304440EA0470C8F8580053D067
:102758008798E0461B9086981D90DDE98230DDE978
:1027680084B11C90DDE9AECADDE9B040DDE9D8E20C
:10277800DDE9B2691F9D0DB90D9DEDBB159D002DBD
:102788001CBF209D002D37D0229D002D1CBF149DFD
:10279800002D31D0139D002D1CBF129D002D2BD074
:1027A800BEF1000F05D01E9D32B3BCF1000F05D15C
:1027B80007E000221E9DBCF1000F02D0BAF1000F05
:1027C8001AD004B1C0B116B1B9F1000F14D00BB1D1
:1027D8001C9888B1BBF1000F03D069B11D9818B9D6
:1027E80004E000211D9808B11B9828B1DDE90E30DE
:1027F800184318BF002D07D140F20E00C0F20000A8
:1028080004F025FB04F08EFB219840F63064C2F2F8
:10281800004402381CBF46F60040C0F2DC20C4E980
:1028280002802098C4E904024BF63F30C0F600004D
:10283800A16105F052FD2269002A00F0D7874FF008
:1028480080400023016821F0010101600C21C4F2DD
:1028580000018B614FF0FF33239C03EBD235B5F5B4
:10286800803F80F0DB874FF6FF728D830A62012676
:1028780002684FF4004942F0040202608E60026868
:1028880022F0040202600322C1F828900A604EF286
:1028980000124FF08051CEF20002C2F88011C2F847
:1028A800801111601160016841F001010160119807
:1028B800C00700D162B6201D4FF4807121904FF4FB
:1028C800807A07F0FBFE0C2007F05FFC0B2007F076
:1028D8005CFC04F582754FF41071284607F0EEFE93
:1028E8000820CDE9865AA4F850034FF4FA50C4F8EA
:1028F8004C0304F501702E90322082AD8DF8BE0293
:102908004FF08070AEAA4FF000084FF0040BAE9065
:1029180028460221072384F86283A4F86083C4E967
:10292800D58884F85283CDF82082CDF81082CDE97D
:10293800826BCDF8C480CDE92FA8CDF8B080CDF852
:10294800A880ADF8BC9207F07BFC0DF1A80A4BF605
:102958007C62C0F600020F2150460323CDE9316B9B
:1029680007F06EFC4BF624325046C0F600020221F6
:10297800042307F0A9FC04F559790ECD48460EC08A
:1029880095E84E004EC004F56070BAE84E004EC09F
:102998009AE86E0004F28C4A6EC040F2EF20C4F24E
:1029A8000100C4F8E6034FF40470A4F8E40310200F
:1029B800C0F264004FF48073C4F8E0034CF2DE0008
:1029C800CFF6FF7000F52261A4F8DC034BF2B46087
:1029D800A4F8DE13C0F600001221A4F8EA334BF283
:1029E8009B634BF2A262C4E9F410C0F6000308200E
:1029F800C4F8C433C4F8D803C0F60002072350460D
:102A08002421C4F8B88484F8EC83C4E9F23207F0CE
:102A180055FE40F238064020219DC2F20046C4F817
:102A2800880440F20040C4F8F0534FF4807584F8ED
:102A3800BCB4002284F87EB440F6657384F878B498
:102A480004F5417184F872B4C0F21E0084F86CB4C5
:102A5800C4F2080284F866B4C0F6000384F860B4CF
:102A680084F85AB484F854B484F84EB484F848B45A
:102A780084F842B484F83CB484F836B484F830B4AA
:102A880084F82AB484F824B484F81EB484F818B4FA
:102A980094F8EBB3C4E9FD560025C4F88414092161
:102AA800C4F808040120C0F20225BBF1010FA4F804
:102AB8008084C4F8108484F80C84C4E9FF32C4F814
:102AC800041484F8C083C4E9ED08C4F8BC83C4F8CE
:102AD800AC83C4F8A483CDF888901AD12AAA4846B2
:102AE8000B210623ADF8AC802A9507F0A9FBD4E9A1
:102AF800DE100538884280F0A686D4F874231C902E
:102B0800115C01311154D4F8B864042E02D300F0DA
:102B180068BE002604F5966204F2B149D4F864133D
:102B280022F8168006F10108012919F81600C4F8E0
:102B3800B88400F1010009F8160040F04486D4F882
:102B48006803D4F87813CDF880B08842CDE91EA286
:102B580080F04186D4F8741304F57C7BD4F87C2388
:102B68000B5C01330B54111DCDF8A9500120229D97
:102B78002AAAC4E9DB010020ADF8AD0004212846EB
:102B880007238DF8A86007F05BFB4BF2C04228468C
:102B9800C0F600022421032307F052FB4BF2C34284
:102BA8002846C0F600022421022307F049FB06202C
:102BB8002AAA8DF8A8002846242103238DF8AA8084
:102BC800AA461D968DF8A96007F03AFBFF205946E2
:102BD80000902AA803220823CDF884B0FEF7A3FCAE
:102BE8009DF8B450042D00F0D784DDE92A01BDF822
:102BF800B0609DF8B2B09DF8B380CDE98201D4F8F9
:102C08006C03BDF8B5209DF8B7300128ADF8B8229F
:102C18008DF8BA3240F0C985D4F87003D4F8781327
:102C2800884280F0CA85D4F8741305230A5C0132FF
:102C38000A54300A2AAA8DF8AB00504605218DF8AF
:102C4800AC808DF8AA608DF8A9508DF8A8B007F06F
:102C5800F7FADDE98201CDE9D6012098BDF8B8225E
:102C68009DF8BA32ADF8B0228DF8B23250B1D4F82E
:102C780078131C98884280F0E685D4F87423115C98
:102C880001311154CDE91B8BD4F8B8B42095BBF1B0
:102C9800040F80F0A6851F99002021F81B00D4F8A6
:102CA800B804411CC4F8B814594540F2D28519F843
:102CB8001B001F96013009F81B00DAF800000128F4
:102CC80040F08185D146DDF88CA0219CDAF86803B4
:102CD800DAF87813884280F07E85DAF87413DAF827
:102CE8007C230B5C01330B54111D01202AAACAE96D
:102CF800DB010020ADF8AD004FF42020CDF8A9008D
:102D08004846042107238DF8A8B007F099FA2AA8A5
:102D1800214602224023FEF7A2FA9DF8B450042D62
:102D280000F06D84DDE92A01BDF8B0809DF8B2405D
:102D38009DF8B360CDE98201DAF86C03BDF8B520DF
:102D48009DF8B7300128ADF840238DF8423340F0A4
:102D58002C85DAF87003DAF87813884280F02D852C
:102D6800DAF874130523169618950A5C179401323D
:102D78000A544FEA18202AAA8DF8AB0048460521C4
:102D88008DF8AC608DF8AA808DF8A9508DF8A84010
:102D980007F056FADDE98201CDE9AE01002021995C
:102DA800BDF840239DF8423300902AA8ADF8B4221C
:102DB80002228DF8B6324023FEF7B5FB9DF8B49099
:102DC800B9F1040F00F0E883DDE92A01BDF8B0602D
:102DD8009DF8B2409DF8B350CDE98201DAF86C0352
:102DE800BDF8B5209DF8B7300128ADF8A8228DF8B8
:102DF800AA3240F0DA84DAF87003DAF87813CDF8FA
:102E08008480884280F0D984DAF8741305231395F6
:102E18008DF844530A5C15968DF8426301320A54C2
:102E2800300A8DF84303D0AA229805218DF84193E2
:102E380014948DF8404307F003FABDF8A8229DF8D2
:102E4800AA32DDE98201ADF8A0228DF8A232DAE9D2
:102E5800ED32DAF8BC43DDF86080CDE92A010021C3
:102E6800DAE9EB06CAF8AC1360B106F10801B01D47
:102E78008142C0F0D683914200F2D383DDF88CA062
:102E8800A11B1952DAF8AC140AF5537C1D980429D1
:102E9800CDF848908AF84803CAF844C380F0E08423
:102EA800DDF878900AF55172199BDDE9D60649F8E4
:102EB8003120C3E9000620988AF8D0041B988AF8C4
:102EC800CF041C988AF8CE041F98AAF8CC04169848
:102ED8008AF8DF0417989DF8B2228AF8DE04219850
:102EE8008AF8D3244BF2C842AAF8DC0409EBC100E3
:102EF800DAF8AC14C0F60002DDE9AE45BDF8B0E280
:102F0800C3E90445AAF8D1E48AF8E0844260481C81
:102F1800CAF8AC04DDE92A01129A8AF8F4B40DF172
:102F2800A80BC3E908018AF8F0245846139A149E9E
:102F380022998AF8EF24BDF8A0228AF8EE64159E3B
:102F4800BDF8B442AAF8EC649DF8B6629DF8A252A6
:102F5800AAF8F1244FF4AE72CAF8C0C48AF8E36440
:102F6800AAF8E1448AF8F35407F078FDDAF8BC438C
:102F7800D146002C61D0D9F8AC03D9E9E932D9E9B6
:102F8800EDA599F8C083C0070DD0D9F8B06306F154
:102F98000801B01D8142C0F02283A94200F21F83BC
:102FA800A11B2AF80010D8070BD002F10801901DC8
:102FB8008142C0F01483A94200F21183A11A2AF8B1
:102FC8000010092D40F212830021AAF808408DF85C
:102FD8002012210A8DF81E129F218DF8181249F629
:102FE8009D61C8F664214DF60072859149F64C4101
:102FF800C6F2D251CDF66052849148F6D811CCF27F
:1030080045718DF81F828DF81D420BF11C008391CC
:103018001923DAF80410829282AACDF81912052130
:1030280007F052F9AC420DD94BF6A0630020C0F668
:10303800000321462A4603F0F1F900244FF0010A63
:103048004FF000082F9D032D40F2F182379E2E99F4
:103058003098229048803EB1369A00203890032A52
:1030680040F205833598468018910BF18C0182A8AF
:10307800942207F0F3FC2298A84200F29F82369A25
:10308800964200F2A4829DF82C0182A92190002288
:103098009DF82B01002520909DF82A011F90BDF86E
:1030A80026010E90BDF824011D9042981590439872
:1030B80011904498149045981090BDF822011C90E6
:1030C800BDF820011E9047980F90469813903598A8
:1030D8009DF82DB1129072980D905B4673980C90E4
:1030E800AEA8CDE91668BDF82861FEF7B8F89DF8D6
:1030F800C402042800F0A482DDE9AE12D04600958F
:10310800AEADCDE9D01282A9BDF8C0020022DDF82B
:10311800C3320B949DF8C742ADF848032846A893DC
:103128005B469DF8C2A28DF8A442FEF7FCF99DF813
:10313800C402042800F08982B4469DF8C262DDE921
:10314800AE12BDF8C002DDF8C3329DF8C742ADF833
:1031580060031AF07F00CDF82880CDE9D612AA9333
:103168008DF8AC42AC9040F0888316F07F00CDF823
:103178006CC0CDE9086AAD9040F0878309F5986086
:10318800069009F59F6007902AA8DA4600F5947121
:1031980000F1860800F5A67B849801900DF5027968
:1031A8008698AC460290BDF89802049009F1240074
:1031B800059105F118016CC86CC16CC86CC17CC85C
:1031C8007CC136226446008808800CF14E0009F163
:1031D8005A0107F0CAFA09F1080C2146A6469CE8EC
:1031E8007D007DC1239EBDF86033DDE9D601A6F8D8
:1031F8003036239E239DAA9AC6F82C162399239E1F
:103208009DF8AC32C1F82806DDE9D001C5F83806CA
:103218002398C6F83326239EC0F83C162398BDF899
:10322800482386F83736A0F840262398A89B9DF8AF
:10323800A462C0F8433623980D99239A80F847660C
:1032480023981F9B82F81A35C0F84C1623980C99BE
:10325800239AC0F8501623980999CDF80CA0A0F825
:1032680048A62398DDF84C9080F8421623980899D0
:1032780080F8321601982399E030C1F82406239883
:103288000299C0F820162398219980F81DA5239843
:10329800DDF850A080F81C152398209980F81B159C
:1032A80023980E99A0F81615B8F80410A2F822155C
:1032B80023991B9AD8F80000A1F81825842223998D
:1032C800DDF85480C1F81E0523981D99A0F814153F
:1032D80023981C99A0F8121523981E99A0F8101588
:1032E80023981199C0F8F8842398C0F8FC142398FF
:1032F8001099C0F800A52398C0F8041523980F99D1
:10330800C0F808952398C0F80C157146239800F268
:10331800245007F0A3FB23984FF0000C1799B9F13C
:10332800000F80F8C81523981899C0F8B015DDE982
:103338002210C0F8B41523981299C0F8B81523982C
:103348001699C0F8BC1523980A99C0F8C015239897
:103358000B99C0F8C41523980499A0F8A8159BE800
:103368000700DDF88CB0CBF8CC050598CBF8D01564
:103378000BF5BB61CBF8D4258BF8ACC58BF8AAC587
:103388006CC86CC190E87C007CC14FF001018BF8DF
:1033980016164FF006018BF80F1640F60121ABF810
:1033A8000D1618BF4FF00309BAF1000F8BF80C96F1
:1033B80018BF4FF0020A8BF80BA6B8F1000F18BF20
:1033C8004FF001081D988BF808061E9E010A1C98EC
:1033D8008BF80916DDE9199A010A8BF806068BF8AD
:1033E8000716310A8BF80516022103988BF8111677
:1033F8008BF8FF154FF48971219A209B1F9D8BF83C
:1034080004661B9EABF8FC1506998BF815068BF81D
:1034180003060798CBF81AC6CBF858060BF5CC600C
:103428008BF80A868BF814268BF813368BF812560D
:103438008BF810668BF802268BF801368BF800564D
:103448008BF8FE65CBF817C68BF82CC7CBF824C7CA
:10345800CBF828178BF860C6CBF854C61390DBF866
:103468005806CBF85C0675E29BF8C0060BF5D865E4
:10347800DFE810F0640036021D0C08004C003F0025
:10348800670008009BF8C806C00740F01D82DBF8FB
:10349800C40600F09EBD0BF2A26018909BF8A2062D
:1034A800DFE810F005001802050C12000900DBF82F
:1034B80090C600F043BC9BF8A806C00740F0048201
:1034C800DBF8A40601F0C7B99BF8B5060BF2B564A2
:1034D800DFE810F005000C02ED0B6C0C880CDBF833
:1034E800A406DBF8A816DBF8B0369BF8B72601F07F
:1034F8004EBC9BF80A0780B3032840F0FD819BF877
:103508000007E0B3032801F04F8120E09BF8200773
:10351800CDF86C800BF5E4681D9528B3032840F0BE
:10352800F1819BF818070BF5E36960B3032840F0B5
:10353800EF81DBF80037DBF80C479BE3DBF8A8C624
:10354800EBE29BF80007B0B1032801F053814BF67A
:103558000800C0F6000003F059FC9BF80817DBF8D8
:1035680004071D9501F0FCB8DBF8E806DBF8EC165B
:10357800DBF81C2757E3DBF8C40601F030B9DBF8A9
:10358800C40601F006B9DBF8F066DBF8F406DBF8F0
:10359800F81659E302F035FF4BF244504BF21C5336
:1035A800C0F60000A7F11D0200904BF22C50C0F6A7
:1035B8000000C0F60003182103F0FDFB22994BF62A
:1035C8001C63C0F6000300202A4602F027FF4BF6D2
:1035D8001C630020C0F60003314602F01FFF4BF6C3
:1035E80090632A46C0F6000302F018FF4BF690637A
:1035F8000820C0F600030A212A4602F00FFF4BF20A
:1036080070504BF21C53C0F60000A7F11D02009049
:103618004BF25450C0F60000C0F60003192103F025
:10362800CAFB4BF69063C0F6000302F0F7FE4BF6B8
:10363800CC530220C0F6000304212A4602F0EEFE15
:103648004BF2D870C0F6000003E04BF2C870C0F629
:1036580000004BF21C5300904BF25430C0F60003AC
:10366800C0F60000A7F11D022B2103F0A4FB4BF6C6
:1036780080630220C0F60003042102F0CFFE4BF263
:10368800BC60C0F6000003F0C1FB40F21B00C0F2B2
:10369800000003F0DCFB03F045FC40F21600C0F22A
:1036A800000003F0D4FB03F03DFC40F21800C0F228
:1036B800000003F0CCFB03F035FC40F21200C0F22E
:1036C800000003F0C4FB03F02DFC40F21300C0F22D
:1036D800000003F0BCFB03F025FC40F21400C0F22C
:1036E800000003F0B4FB03F01DFC40F21500C0F22B
:1036F800000003F0ACFB03F015FC40F21E00C0F222
:10370800000003F0A4FB03F00DFC40F21000C0F22F
:10371800000003F09CFB03F005FC40F22000C0F21F
:10372800000003F094FB03F0FDFB40F22300C0F21D
:10373800000003F08CFB03F0F5FB40F21900C0F227
:10374800000003F084FB03F0EDFB40F20F00C0F231
:10375800000003F07CFB03F0E5FB40F22100C0F21F
:10376800000003F074FB03F0DDFB40F23300C0F20D
:10377800000003F05BFB06F0D1FC03F09CFC03F0B7
:10378800D1FB40F22D00C0F2000003F04FFB06F021
:10379800C5FC03F090FC03F0C5FB40F21F00C0F22B
:1037A800000003F054FB03F0BDFB40F23C00C0F204
:1037B800000003F04CFB03F0B5FB4BF60C62C0F6BF
:1037C800000202F0ABFE40F23D00C0F2000003F040
:1037D8003EFB03F0A7FB4BF6BC52C0F6000202F01A
:1037E8009DFE40F23B00C0F200003DE040F22500A3
:1037F800C0F2000003F01AFB4BF628300421C0F693
:10380800000004F038F94BF62C300921C0F600000E
:1038180004F031F903F04FFC03F084FB40F22B0075
:10382800C0F2000003F002FB284603F03EFF03F05D
:1038380042FC03F077FB40F21C00C0F2000003F0EA
:1038480006FB03F06FFB4BF2FC42C0F6000202F0ED
:1038580065FE4BF20C525846C0F6000202F05EFEBE
:1038680040F23A00C0F2000003F0E0FA042001F050
:1038780007FD03F020FC03F055FB40F24500C0F2C1
:10388800000003F0D3FAACA806E040F24400C0F20E
:10389800000003F0CBFAADA801F008FD4BF6243088
:1038A800C0F6000001F002FD03F005FC03F03AFB4E
:1038B8004BF25040C0F6000003F0A8FA4BF210405B
:1038C800C0F6000003F0A2FA4BF61800C0F600009C
:1038D80003F09CFA4BF24040C0F6000003F096FA61
:1038E8004BF27040C0F6000003F090FA4BF6280047
:1038F800C0F6000003F08AFA4BF2E870C0F6000048
:1039080003F084FA4BF63800C0F6000003F07EFAA4
:103918004BF2A050C0F6000003F078FACBF8680626
:1039280090F8201111B300200BF26C648BF86C0630
:10393800DBF85C06CBF86406DBF86406CBF86806AF
:1039480090F82011002941F0EC800121DBF85C0699
:103958008BF86C160021CBF864068BF86C160BF20A
:103968006C6117910BF264611691D7E7002100F1A1
:103978002C0200F594708BF89816CBF888268BF8F3
:103988008416CBF870060BF5D160514601F0A4FD02
:10399800C0B2052808D19BF88406A8B1032841F0D5
:1039A8004980DBF880661DE000218BF878068BF8EB
:1039B8007916DBF86816CBF874160BF5CE60FCF7B1
:1039C800FFFEDBF86806ABE7DBF8700600F12202C1
:1039D80086694168CBF87406CBF87816CBF87C2654
:1039E800CBF88066DAE90010EFF3108872B6D6E9F2
:1039F80002450022B26024B18C4208BF854200F023
:103A08001D83096888470246D6E90230C6E90221C3
:103A1800002B1CBFD9688847002C1EBFE1682846C8
:103A280088475FEAC87000D162B6DBF87816087A72
:103A3800002800F07184002308684A68BFF35F8F8C
:103A48000B72DBF87C160B7803F07F06102E80F0E3
:103A5800E987D9F8B0311D6805EB4616D6F8105B32
:103A680045F0C045C6F8105B097801F07F011029C0
:103A780081F0E2811B680BF28E6803EB4111D1F8EB
:103A8800003B43F08063C1F8003B0021DBF868C6C7
:103A9800C9E96C028BF88E16CBF870C6C0F34113D7
:103AA8008BF88C36030AC9E96E028BF88A36030C48
:103AB800ABF88436C3B2DB09ABF886268BF88D36B3
:103AC80000F01F03120C042B28BF0423ABF8882630
:103AD8000BF2846240B2B0F1FF3F8BF88B3640F3B3
:103AE800158110890DF1A80E13685268CDF8B6201B
:103AF80082AACDF8B230ADF8BA0013469EE873003A
:103B080073C30BF2AC60CBF8A8C692E87A007AC00F
:103B18000BF5D86500208BF8C006DBF8BA16002331
:103B2800DBF8B606BBF8BE26CBF8AC0688B2CBF8F5
:103B380098C6CBF8B016ABF8B426CBF89C06BCF800
:103B48005021CBF8A026CBF8A436DCF858118142D6
:103B580004D20CF59470C9E980033AE2002A00F017
:103B68002387DCF854310121CBF8D8264FF0000C1C
:103B780000228BF8DC16CBF8D036CBF8D406DBF86D
:103B8800C8060023DBF8CC16D207CBF8C43611D10F
:103B9800DBF8D426002A00F0B881DBF8D006DBF881
:103BA800D816914228BF1146521A4318CBF8D0367E
:103BB800CBF8D426002800F0A881DBF8D4464FF0D3
:103BC800000C9BF8DC3600261D95CDF86C808BF830
:103BD800DCC664B1DBF8D066DBF8D856A54228BF4E
:103BE8002546641B7219CBF8D026CBF8D44601229F
:103BF8008BF82137B6FA86F3CBF8C426DBF898267B
:103C08000BF5E4685B09CBF8C86602F59472CBF84B
:103C1800CC568BF820C7CBF8E806CBF8EC16CBF8D7
:103C28001C278BF82237002302F118068BF8183767
:103C38000BF5E369CBF8F066CBF8F406CBF8F81689
:103C4800CBF8E006CBF8E416324606F10A0352F840
:103C58000C4B06F108050436CBF8FC66CBF80037A8
:103C6800CBF80427CBF80857CBF80C47CBF810074C
:103C7800CBF814171A780023DAE90010EFF3108A4A
:103C880072B6D4E9025B02F07F06A36025B18D42CB
:103C980008BF834500F0D880096888470246D4E900
:103CA8000230C4E90221002B1CBFD9688847002DC7
:103CB8001EBFE968584688475FEACA7000D162B6F5
:103CC800DDF88CB0102E81F0B780DBF8FC56286840
:103CD80000EB4610D0F8000B00040BD5B4F814A084
:103CE8004FF6FF70824500F01E83DBF8140750453D
:103CF80080F0B08001201D9D88F8000089F8000040
:103D0800DDE9199ADDF86C8000F061BD2A9882A976
:103D1800D2E90036128949C1CBF8940600208BF805
:103D2800A2060BF2A260ADF81422CBF890C6CBF82D
:103D38009836CBF89C66ABF8A0261890BBF89C0682
:103D4800CBF894C622909CF825011490BCF8500139
:103D5800DCE95532159058469BF89E46BBF89AE622
:103D6800BBF898569BF89FA69BF8A0B690F8A106BA
:103D7800BBF1000F2190CDE91F23CDE91D5ECDE9F0
:103D88001B8438D0BBF1020F08BFBAF1000F00F056
:103D98006481DCF80001002800F050850CEBC000BD
:103DA8000CF1E00800F1E009D8E90010C66A219892
:103DB8008DF8C1022298ADF8BC022AA80092AEAADA
:103DC8008DF8C0B28DF8BFA28DF8BE42ADF8BAE248
:103DD800ADF8B852B0472A98012800F0E8820DF1F2
:103DE800700EDDE91F2308F108089EE83040C84539
:103DF800DAD100F023BDBAF1000F00F08181BAF1E9
:103E0800010F00F06A81BAF1020FC2D1002C40F014
:103E18001585DCF838000EF00F05A84240F2278619
:103E2800DCF834104FF410604FFA8EF6B6F1FF3F0D
:103E380001EB4511C8BF4FF43060012A085840F221
:103E4800D185C0F340507CE2A5605FEACA703FF4B8
:103E580036AF35E721695246DBF81007760106F0E0
:103E680084FC4FF6FF70BFF35F8FA082DBF8041766
:103E7800DBF80827EFF3108072B62B683344D3F8C9
:103E8800104B128804F06044224402F50022C3F863
:103E9800102B097801290FD129684FF08053D1F8E8
:103EA80008283144D1F8004BD20558BF4FF00053D1
:103EB80043EA0402C1F8002B2968C0073144D1F84D
:103EC800002B42F08062C1F8002BDDF86C8000D135
:103ED80062B6DBF8E42601201D9D52458BF81807D1
:103EE800C0F07885DBF8A426DBF8A01602EB0A0CF4
:103EF8008BF820075145CBF8A4C606D8DDF868A092
:103F0800DBF89C06844540F0AE81DBF89866D6F86D
:103F18005821944500F240859BF8B2269BF8B34699
:103F2800BBF8ACE6BBF8AE36CDF86C809BF8B4862F
:103F3800D6F854111D95B8F1000F9BF8B506BBF8DB
:103F4800B05620901F952291CBF89016CBF894C6C6
:103F5800CDF8848061D0D6F80001002800F05C819B
:103F680006EBC00006F1E00AE0301E90DAE9000135
:103F780090468D6A1E462099A1468DF8B110F346E9
:103F880021998DF8B0108DF8AE201F99229AADF8BE
:103F9800AC102AA9ADF8AA3063468DF8AF40644644
:103FA800ADF8A8E0A847C1B202294DD10AF1080A24
:103FB8001E98A446DE46334642464C468245D5D135
:103FC8002AE1DBF8980600211D9D00F59470C9E9E7
:103FD8008001817C01F07F01102980F01B85026837
:103FE80002EB4111D1F8002942F40012C1F800296E
:103FF80090F8221001F07F01102980F01D870068D9
:1040080000EB4110D0F8001B41F40011C0F8001B70
:1040180001208BF8C80600F0DABB002C00F0EE8017
:10402800012C00F08280022C95D1012A00F0218118
:10403800032A40F0F1804FF400111BE1B4605FEAFD
:10404800C8703FF4F1ACF0E4DDF88CB0C007DDE9EE
:10405800199ADDF86C80B4D171E3DCF8CC1039B171
:104068009CF8D000844208BFBEF1070F00F0FE8024
:10407800DCF80001002800F0E1830CEBC0000CF133
:10408800E00800F1E00B0DF1A80A0DF52E79D8E94A
:104098000010C66A21988DF8C1024FF40070ADF87F
:1040A800BF022298ADF8BC02504600924A468DF8ED
:1040B800BE42ADF8BAE2ADF8B852B0472A98012826
:1040C80000F075810DF1700EDDE91F2308F1080875
:1040D8009EE83040D845DAD1B0E3DCF8DC00704522
:1040E80040F2AC83002C00F028810A2C40F02C818F
:1040F800002A00F0D6840CEB4E0090F8D40011E0B2
:10410800002C00F0FE80062C00F0DF80082C40F028
:104118009583002A00F0B0849CF824010438B0FA92
:1041280080F040091870012146E1D6F8DC00DCB2C5
:10413800A04271D90B2A6FD106EB44005FFA8EF1C9
:1041480000F1D40999F80100884265D9D6E92EA56D
:1041580006F12C00DDF88CB00021DDF86C80209091
:10416800002089F800E02196C9B222915FFA80FC0C
:1041780001E0042E3AD0002D00F05A81012D00F004
:10418800C2829AF800205146AE1E901EB04200F23C
:10419800BA824E7801EB020AAD1A022E07D0052E1C
:1041A800E7D1002800F0AF82A445E4D107E0022857
:1041B800C0F0A98202F0FE010429DCD1A3E299F83B
:1041C80000007646229A8978801ACDF87C90B0FA59
:1041D80080F0A1461C464209209801F0AEF823461B
:1041E8004C46DDF87C90B6461846BFE7002818BF55
:1041F800032A00F088828878C978B5E7501E082815
:104208000AD8DFE810F01000090058010900310150
:104218000900090009007901DDF88CB0DDE9199A77
:10422800DDF86C80CDE6BEF1010FF5D1D6F80001BE
:104238000021DDF88CB0DDF86C80002886F82111AB
:1042480000F07B8206EBC00006F1D80500F1E0041F
:1042580055F8080F69680A6A0021904705F10800B7
:10426800A042F5D169E2DBF8C42688E4DCF8C8305E
:10427800A2E00021BEF1000FCED1B06B03F00F0514
:10428800A84240F20184726BDCB2F06A66B202EBBB
:104298004513EFF3108272B6002E00F18581D3F832
:1042A800006B26F400163143C3F8001BD10700D178
:1042B80062B6DDF88CB0092D80F0FB8305EB450173
:1042C80000EBC10000F1080681E14FF0FF3000EB80
:1042D80015200E2800F2B282DFE810F00F000B0262
:1042E800EC01B002B0020E02B002B002B002B0029D
:1042F800B002B002B002B00212020CF582731221B1
:104308005AE0012A40F276839CF821019CF8221198
:104318004000C0B2084314E013990320179A8BF8A1
:10432800840600F026BC1D9D032088F8000089F84B
:1043380000000420DDE91AA871E2012A40F2628334
:1043480000201880022137E0DCF80001002800F086
:1043580075820CEBC0000CF1E00800F1E00B0DF1E8
:10436800A80A0DF52E79D8E90010C66A21988DF8AB
:10437800C1020120ADF8BF022298ADF8BC02504638
:1043880000924A468DF8BE42ADF8BAE2ADF8B8528E
:10439800B0472A9801280AD00DF1700EDDE91F23D5
:1043A80008F108089EE83040D845DCD146E22B9B4E
:1043B8002C99002B00F04282229A159E10469642B4
:1043C80038BF3046149D002D18BF1046122E28BF46
:1043D8001046884228BF08460ED9DDE91AA8002EE3
:1043E80000F03383B0FBF6F1DDF88CB001FB160169
:1043F800B1FA81F1490907E0DDF88CB00021DDE967
:104408001AA8002E00F0DB82DDF864900125002256
:104418008BF81457CBF8F056CBF8F416CBF8F826EF
:10442800CBF8FC36CBF80007CBF8046700F040BCAB
:104438002199D1F80001002800F07F8101EBC0002C
:1044480001F1D80500F1E00955F8080F7246F24667
:104458001C4669684E6A1946B04705F108002346AC
:10446800D6464845F0D168E1AEF1010080B27F2818
:10447800BFF4D2AED6F8000140F20131DDF88CB0BD
:10448800DDF86C800028A6F8231186F825E100F0F5
:10449800548106EBC00006F1D80500F1E00455F898
:1044A800080F96F825116A685269904705F10800C7
:1044B800A042F4D141E1BEF1010F7FF4ADAED6F8D0
:1044C80000010121DDF88CB0DDF86C80002886F849
:1044D800211100F0328106EBC00006F1D80500F189
:1044E800E00455F8080F69680A6A0121904705F148
:1044F8000800A042F5D120E1BEF1000F00F0828053
:10450800BEF1010F7FF488AE0420D6F8DC1086F8DF
:10451800240106F1D400D6E92E8406F12C09DDF831
:104528008CB00025CDE921600E4600205FFA80FAA4
:1045380001E0042B30D0002C00F0A480012C00F006
:10454800198298F800104046A31E8A1E9A4200F26B
:104558001182437800EB0108641A022B14D0052B52
:10456800E7D1002A00F00682AE4240F27882229912
:1045780011F815208178A2EB0A00B0FA80F0420900
:10458800484600F0DAFED6E7022AC0F0F38101F0CF
:10459800FE000428CFD1EDE1002A18BF032900F05E
:1045A800E9818578C078C1E7D3F8006926F4001658
:1045B8003143C3F80019D10700D162B6DDF88CB0D9
:1045C800092D80F07E8205EB450100EBC106EFF373
:1045D800108872B6D6E900540020306055B1A96839
:1045E80020468847D6E90010C6E9005400291CBFB8
:1045F800C96888475FEAC870DDF86C8040F09D8024
:1046080062B69AE0DDF88CB0DDF86C8096F824018B
:10461800022800F09280D6E92E0406F12C08032126
:10462800B14686F82411002C72D0012C00F00882C3
:104638000178A31E8A1E9A4200F202824378451826
:10464800641A052B14D0042B0BD02846022BEAD170
:10465800022AC0F0F58101F0FE0004282846E2D1C4
:10466800EEE1002A00F0EC8103292846DBD1E7E1DE
:10467800002A00F0E58181784046002200F05DFEC6
:104688002846D0E72199DDF86C80D1F80001002890
:1046980053D001EBC00001F1D80500F1E00455F852
:1046A800080F69688A690121904705F10800A0424E
:1046B800F5D142E0EEB2032E00F2F0800425604608
:1046C800DFE806F002B7B0B4002A00F00A8204203E
:1046D800012A187000F00D820320022A587040F257
:1046E80010820920032A987000F013820421D970DF
:1046F80062E6DCE92E315FE60CF58B730A215BE696
:10470800DCE9303158E64BF2A030C0F6000035E164
:10471800D9F80001DDF86C8078B109EBC00009F127
:10472800D80500F1E00455F8080F69688A69002186
:10473800904705F10800A042F5D1DDE9199ADBF8A8
:10474800981601F5947091F82321002A42D091F827
:10475800251100228BF80A278BF80817CBF80407D5
:104768008BF8091701F07F010268EFF3108372B626
:10477800D2F8006826F4FE6646EA0111C2F800186D
:104788001D9DD90700D162B60021CBF8C4068BF86D
:1047980000170021012208308BF8E416CBF8C80670
:1047A800CBF8CC26CBF8D0160BF5D9605146FCF7E0
:1047B80045F9C0B2032818BF01208BF80A078BF807
:1047C80000072BD0DBF89806002180F82311012080
:1047D800287019E30021CBF8C4068BF800170021D4
:1047E800012208308BF8E416CBF8C806CBF8CC26A3
:1047F800CBF8D0160BF5D9605146FCF71FF9C0B2BB
:10480800032818BF01208BF800074FF0010008BFEC
:1048180006208BF8C00640F0F78201E005202870DA
:10482800042003E30CF108000C2502E00CF1100051
:1048380014255CF805100068002843D1DDF88CB019
:104848000021DDF86490DDE91AA8DBF8940600F58C
:104858009470C9E97801817C01F07F01102980F00A
:10486800D980026802EB4111D1F8002942F4001204
:10487800C1F8002990F8221001F07F01102980F07A
:10488800DB82006800EB4110D0F8001B41F40011F6
:10489800C0F8001B01208BF8A806B2E2DCF8000182
:1048A8000CF1E008C600002EC8D0F8E802017246F4
:1048B8000B6B29469847DDE91D5E083EDDE91F239D
:1048C8000028F0D0012A40F2048103224FF00008AA
:1048D8005A70431802214FF0370C4FF4584E0024F9
:1048E800002C3FD141E0064616F9012BB2F1FF3FFB
:1048F800D4B201DD00252BE0427804F01F05E02C3E
:1049080002F03F0211D38678F02C06F03F0646EA03
:1049180082120FD3C478061D04F03F0444EA8212C1
:1049280005F0070442EA844507E042EA8514861C3C
:1049380000250DE042EA0535C61CB8EB154F01D13C
:104948002C46D7E705F57F006CF39F254EEA9024A7
:104958008A1C1F9882427AD2209844522C463046AC
:10496800114614B100250646F2E79842BBD1209BB8
:10497800197021E54BF28030C0F600004BF2443349
:1049880000904BF25430C0F60003C0F60000A7F1C7
:104998001D022B2102F00FFA4BF280430020C0F6D3
:1049A8000003614601F03AFD4BF280604BF2604231
:1049B800C0F60000C0F60002372101F0A0FD4BF25E
:1049C80080604BF23042C0F60000C0F6000237218A
:1049D80001F095FD4BF648030020C0F60003514650
:1049E80001F01CFD4BF23433C0F600030020022115
:1049F80001F014FD4BF2F423C0F60003002002215D
:104A080001F00CFD4BF21433C0F600030020022124
:104A180001F004FD40F24B00C0F2000002F017FA6A
:104A280002F080FA40F24C00C0F2000002F00FFAE7
:104A380002F078FA4BF2F870C0F6000002F0E6F9DE
:104A48004BF29030C0F6000098E702F0D2F940F23D
:104A58003800C0F2000002F0FAF902F063FA4BF2F3
:104A6800B0322846C0F60002314601F057FD40F248
:104A78005100C0F200000BE04BF20432C0F6000215
:104A88000020002101F04AFD40F25300C0F200006E
:104A980002F0CCF9284600F0F3FB02F00CFB02F020
:104AA80041FA4BF22432C0F600020020002101F046
:104AB80035FD4BF24872C0F600022846092101F084
:104AC8002DFD4BF25872C0F600022846092101F06C
:104AD80025FD40F23900C0F2000002F0B8F902F0FA
:104AE80021FA4BF2C032C0F600020020002101F08A
:104AF80015FD4BF2D0320120C0F60002012101F071
:104B08000DFD4BF2E0320220C0F60002022101F056
:104B180005FD4BF2F0320320C0F60002032101F03C
:104B2800FDFC00212C308BF88016CBF870060BF5B5
:104B3800CE60514600F0D0FCC0B2052814D0002148
:104B48008BF878068BF87916DBF86816CBF87416AC
:104B58000BF5CE60FBF734FEDBF8680690F8201101
:104B68000029DED1FEF7F1BE13990320207004203E
:104B780001E0107003204FF000080870DBF824975C
:104B8800B9F1000F40F01A829BF82C07002800F0BA
:104B9800EB82032810D19BF8480740B3032840F064
:104BA80074809BF8440728B3032840F07480DBF82E
:104BB8003C17DBF8406798E19BF84C0B0BF64C353B
:104BC800DFE810F0D9016F00750009001B00220012
:104BD80032002B003B009BF8880BD0B3032800F071
:104BE8003E814BF29040C0F6000002F00FF9DBF86E
:104BF80030076DE1DBF8341771E19BF8940B78B35B
:104C0800032800F0F9811EE09BF8940B002800F0BF
:104C18000F82032800F0198215E09BF8940B30B33B
:104C2800032800F061820EE09BF8940B002800F046
:104C38002B82032800F0358205E09BF8980BE8B139
:104C4800032800F06B824BF2A040C0F6000002F08F
:104C5800DDF8DBF8504BDBF8541BDBF8580BF3E0BE
:104C6800DBF8502BDBF8541BDBF8580BBAE1DBF808
:104C7800502BDBF8541BDBF8580B2BE2DBF8541BEA
:104C8800DBF8583BDBF85C2B3DE24BF2B040C0F65A
:104C9800000002F0BBF84BF28050C0F6000002F0B2
:104CA800B5F84BF2CC60C0F6000002F0AFF8FEDEBB
:104CB800DBF80C070023DBF81017D207CBF808370E
:104CC80020D1DBF8FC0688B1DBF800275AB1DBF805
:104CD8000417914228BF1146531A4218CBF8FC26F4
:104CE800CBF8003712E00020CBF8FC06DBF8F00622
:104CF800012840F08680DBF8F4060022DBF8F8167D
:104D0800CBF8F42600287CD0DBF8FC269BF8143777
:104D180000268BF814678AB1DBF800575DB1DBF821
:104D28000467AE4228BF2E46AD1B9419CBF8FC464B
:104D3800CBF800570EE00022CBF8FC26DBF8F06633
:104D48000022012E06D1DBF8F456CBF8F426DBF866
:104D5800F8662A46CBF80C27B2FA82F28BF8B636F8
:104D680000238BF8B5360125DBF894365209CBF8C9
:104D780008570BF2B56403F59473CBF81067CBF8BA
:104D8800A406CBF8A816CBF8B0368BF8B7260026C1
:104D9800CBF8BC068BF8D46603F10806CBF8B866E6
:104DA800CBF8C0168BF8B426CBF8AC360BF5D76029
:104DB8005146FBF743FEC0B2022802D003281ED199
:104DC80030E09BF8B406012825D1DBF8AC160020AA
:104DD80001228BF8E0061831CBF8B816CBF8BC26C0
:104DE800CBF8C0060BF5D7612AA85246FBF7E7FFB8
:104DF8009DF8A800022814D02A98C0070BD00120DB
:104E08002070189901200870012088F80000DBF84C
:104E18006806FEF785BD0120DBF808278BF8B50684
:104E280046E70420189920700320087088F80000CD
:104E380005201399179A9CE640F24A00C0F2000038
:104E480002F005F802F06EF80022CBF8601B8BF830
:104E5800842B04F11402CBF85C2BCBF8640B0BF613
:104E68005C312AA85246FBF7AAFF9DF8A800012149
:104E7800022808BF03218BF8881B1ED02A98C10777
:104E88000AD0C00500F16E8140F20800C0F20000AF
:104E980001F0DDFF02F046F82B99B1F5007F0ED83E
:104EA8000BF5E760CBF83C0B0144CBF8401B88427C
:104EB80040F04A81DBF8344767E003207AE04BF2A0
:104EC800DC63C0F6000300204FF4007201F0A6FA7C
:104ED80000218BF8441700F11401CBF83417081D92
:104EE80051F80A6B0BF5E76243C209780023DAE947
:104EF8000020EFF3108A72B6D6E9025B01F07F0456
:104F0800B3601DB1954208BF83454CD011688847EE
:104F18000246D6E90230C6E90221002B1CBFD96837
:104F28008847002D1EBFE968584688475FEACA705F
:104F380000D162B6DDF88CB0102CDDF868A0BFF4A3
:104F48007BAFDBF838070121006800EB4410D0F88C
:104F5800000B10F4004F08BF03218BF844178BF89F
:104F6800481725D000200BF64C358BF84C0BDBF896
:104F78002807CBF830070BF5E760DBF8304740F23D
:104F88000441CBF8344705F099FB00200BF5E761A5
:104F98008BF8880B4FF40070CBF8504BCBF8541BB0
:104FA800CBF8580B50E7B5605FEACA70C1D0C1E7CB
:104FB800032001E0287004208BF82C07B9FA89F047
:104FC80088F00101400908431FBF03208BF89C0BA0
:104FD8000DF55D7DBDE8000F18BFF0BD0BF2546004
:104FE800FCF754F8002324328BF8783BCBF85C2B81
:104FF800CBF8601BCBF8640B0BF65C305146FBF723
:105008001DFDC0B20328014618BF01218BF8941B6F
:105018005ED0022840F0A3800023DBF834078BF829
:10502800943B0BF53563DBF8441BDBF8482B07C3CF
:105038000BF5356200238BF8783B07CA2430CBF890
:105048005C0BCBF8601BCBF8642B0BF65C3051463D
:10505800FBF7F4FCC0B20328014618BF01218BF806
:10506800941B31D002287AD14BF2FE6200208BF8D3
:10507800940B0A20DBF83417C0F60002CBF8501B5B
:10508800CBF8542BCBF8580B0BF5356200238BF873
:10509800783B07CA2430CBF85C0BCBF8601BCBF805
:1050A800642B0BF65C305146FBF7C8FCC0B20328F2
:1050B800014618BF01218BF8941B07D002284ED156
:1050C8000020CBF8380B38E0052073E7062071E79D
:1050D80004206FE7002324328BF8783BCBF85C2B55
:1050E800CBF8601BCBF8640B0BF65C305146FBF732
:1050F800A5FCC0B20328014618BF01218BF8941BF8
:1051080019D1072056E70020CBF8643B8BF87C0BBD
:1051180001F12400CBF8600BCBF8682B0BF5366057
:105128005146FBF78BFCC0B20328014618BF01218A
:105138008BF8981B79D0022811D1DBF83C0BDBF8EF
:10514800401B88423FF4B6AE411CCBF83C1B0078AC
:105158000C2811DC082813D00A2829D046E0C007FB
:105168003FF492AE01202870DBF8280700218BF865
:105178004817CBF83007ABE60D2819D07F2835D172
:10518800DBF8380B0028D8D001384BF20871CBF87F
:10519800380B00208BF8940B0320DBF83427C0F67B
:1051A8000001CBF8502BCBF8541BCBF8580B91E7E8
:1051B800DBF8381B0029C0D0B1F5007F37D80BF6D3
:1051C8003810CBF8440BCBF8481B4BF2FC6100209D
:1051D800DBF834278BF8940B0220C0F60001CBF8DB
:1051E800502BCBF8541BCBF8580BFBE6DBF8381BDD
:1051F800B1F5007FA1D20BEB01020023DBF83417D5
:1052080082F838090122DBF8386B8BF8983B0BF5EC
:1052180035638BF8500B701CCBF8541BCBF8583BFC
:10522800CBF85C2BCBF8380B6DE70820C2E64BF2C5
:10523800EC63C0F6000300204FF4007201F0EEF8B2
:1052480080B56F4682B040F207000221C0F200002C
:1052580027F8060CB81F01F0B4FF40F259000221EC
:10526800C0F20000ADF8040001A801F0AAFF002078
:10527800022127F8020CB81E01F0A3FF02B080BD7E
:10528800D0B502AF82B0044640F20400C0F200007C
:10529800022127F80E0CA7F10E0001F092FF01A8D9
:1052A8000421019401F08DFF02B0D0BDD0B502AF4A
:1052B80082B0044640F20400C0F20000022127F840
:1052C8000E0CA7F10E0001F07CFF2068042101906C
:1052D80001A801F076FF02B0D0BDD0B502AF82B010
:1052E800044640F20100C0F20000022127F80E0C2B
:1052F800A7F10E0001F065FF01A80421019401F057
:1053080060FF02B0D0BD80B56F46D1E900024BF214
:105318000B71D368C0F600011222BDE8804018471F
:1053280080B56F46D1E900024BF21D71D368C0F613
:1053380000010922BDE880401847F0B503AF4DF8D9
:10534800048DC36801F07F04A34240F29880D0F82E
:1053580000C0C9B28368EFF3108072B64EB2002E57
:1053680007D48AB10F2C00F2978062014FF40046EF
:105378001CE0002A40D00F2C00F29E8061014FF4FF
:1053880000464FF0806249E0102C80F0858003EBE6
:1053980044166201D6F8005BB5F1FF3F05DCD6F88C
:1053A800005B45F09045C6F8005B00261A4401F002
:1053B8001F01D2F8005B8901203125F400452E43F6
:1053C800C2F8006B19611969890609D51969890636
:1053D80044BF19695FEA816102D519698906F2D467
:1053E800C00700D162B6092C5ED204EB44000CEB76
:1053F800C00000F1080628E0102C5DD203EB44122F
:105408006101D2F80069B6F1FF3FDEBFD2F800694A
:1054180046F09046C2F8006900220026194432433B
:1054280047F6FF76C007D1F80039CFF6FF3603EA12
:10543800060342EA0302C1F8002900D162B6092C2A
:1054480042D204EB44000CEBC006EFF3108872B6AE
:10545800D6E900540020306055B1A9682046884735
:10546800D6E90010C6E9005400291CBFC96888475E
:105478005FEAC87000D162B65DF8048BF0BD40F2F7
:105488005200C0F2000001F0D1FC2046FFF7F8FE00
:1054980001F011FE01F046FD40F24A00C0F20000A2
:1054A80001F0D5FC01F03EFD4BF22872C0F6000277
:1054B8002046092101F032F840F24B00C0F200000A
:1054C80001F0C5FC01F02EFD4BF23872C0F6000267
:1054D8002046092101F022F8F0B503AF2DE9000FAD
:1054E80085B08246007C58B1032840F079859AF847
:1054F8000C00A8B3032840F07985DAF808505AE17F
:10550800DAF8005095F88800002840F04D814FF6F1
:10551800484044F60C04CFF6FF70C5F60204205844
:10552800C0F30150DFE810F08A0504001F003D00B9
:1055380040F63060C2F200404669D6BB40F228000F
:10554800C0F2000001F072FC4BF635300A21C0F6BB
:10555800000002F090FA4BF61130C0F6000019E096
:10556800DAF8045025E140F63060C2F2004086695E
:10557800FEB940F22700C0F2000001F057FC4BF6DC
:1055880035300A21C0F6000002F075FA4BF61C30DF
:10559800C0F60000062102F06EFA01F08CFD01F061
:1055A800C1FC40F63060C2F20040C668002E00F030
:1055B800568546F60042A6F13770C0F2DC22921BEF
:1055C80098BFA0F5D8424DF2C040C0F20100824217
:1055D80000F21285EFF3108072B688462168012226
:1055E800C00762F31961216000D162B620684001EA
:1055F80009D4206840015CBF20685FEA401002D4EB
:1056080020684001F2D54EF20C102021CEF20000A5
:10561800C0F8801101604BF2B050C0F60000EFF303
:10562800108672B602F059FEF00700D162B64FF646
:10563800CC42287DCFF6FF72EFF3108172B6A358E3
:105648000026012888BF4FF08056C90723F08053F1
:105658003344A3504FF6F442CFF6FF72A35823F019
:1056680080533344A35000D162B610224146C4F29D
:105678000802D36A02931668002E09D41668002E11
:105688005CBF1668002E03D41668B6F1FF3FF2DC43
:10569800AA684FF08046002804BF4026C4F20006DE
:1056A800B3F50C5FD6600BDAB3F5905F23DB29D036
:1056B800B3F5005F18BFB3F5045F41D000F07EBCBE
:1056C800B3F5445F35DB3BD0B3F5A04F18BFB3F556
:1056D800C24F40F07384012851D1906B95F8843003
:1056E80020F0D070002B04BF00F1807000F500009E
:1056F80040EA435054E0B3F5805F18BFB3F5885FC4
:1057080040F05C84012800F0C284936B002823F4E5
:10571800803308BF03F580339363906B95F884302A
:1057280020F47010002B08BF00F5001040EAC340B9
:1057380036E0B3F50C5F18BFB3F5405F40F03E8428
:1057480095F884600023946B002808BF4FF48033D9
:10575800012824F4010008BF03F5000318449063EE
:10576800906B0323B34320F4001040EA4650906343
:10577800106820F0C00040EA8310106011E095F82E
:105788008400136880F0010623F0C00343EA8613FF
:1057980043EAC6131360936B23F4001343EA4050A3
:1057A8009063012085F888000020CAF804508AF820
:1057B8000C00CAF8085043F6140995F88600CCF294
:1057C8000C0930BB2A7D4BF6A806C0F6000695F8F2
:1057D8008530A86856F822200226C0F8046842EAF4
:1057E8008332C0F8002801220823C0F81028C0F826
:1057F80014384FF0FF33C0F81890436100238260DB
:10580800C0F8043895F8840085F88620012840F00F
:105818009F83D5F80080AA6801920022CDF800A0E5
:10582800D1E90010EFF3108B72B6D8E9364AC8F800
:10583800D82024B18C4208BF824500F09D830968B6
:1058480088470246D8E93630C8E93621002B1CBF04
:10585800D9688847002C019E1EBFE16850468847DA
:105868005FEACB7000D162B6D6F814E05FEA4E0169
:105878000BD54FF080417161A968C1F8189095F86F
:10588800841011B1032001228BE35FEA4E7122D507
:1058980071687160AA684907C2F818901BD595F815
:1058A8008410012917D1EC68002C00F08483DDF8FE
:1058B80000A0002666F07F0128460022FFF73DFD84
:1058C800284631460022FFF738FD0136B442F1D1AF
:1058D8000420012267E35FEACE4140F12D83A968E5
:1058E800EFF3108C72B695F8523095F85860181F7F
:1058F80095F85E40B5F8503095F8642008BF034627
:10590800042EB5F85600B5F85C6018BF0344042CA3
:10591800B5F862006C8A18BF3344042A95F86A20E7
:10592800B5F8686018BF0344042A95F87020B5F8E4
:105938006E0018BF3344042A95F87620B5F87460D1
:1059480018BF0344042A95F87C20B5F87A0018BFDC
:105958003344042A95F88220B5F8806018BF0344C0
:10596800486A042A18BF33442344C3EA0000486243
:10597800EE68002E67D0287F042805D06A8B98B27D
:10598800134440EA02408862012E5CD095F8220058
:1059980004281FBF288CC3EA0042C1F8042103442D
:1059A800022E50D095F8280004281FBFE88CC3EABF
:1059B8000042C1F808210344032E44D095F82E0074
:1059C80004281FBFA88DC3EA0042C1F80C21034474
:1059D800042E38D095F8340004281FBF688EC3EA17
:1059E8000042C1F810210344052E2CD095F83A0046
:1059F80004281FBF288FC3EA0042C1F814210344BA
:105A0800062E20D095F8400004281FBFE88FC3EA6F
:105A18000042C1F818210344072E14D095F8460017
:105A280004281FBFB5F84400C3EA0042C1F81C218E
:105A38000344082E07D095F84C00042840F02F8323
:105A4800092E40F03483288A9AB2824200F2E18219
:105A58004FF4866008615FEACC7000D162B60869CD
:105A680010F0300F0BD0086910F0300F1CBF086918
:105A780010F0300F03D0086910F0300FEFD1D5F8CF
:105A88000880287F04281FD0EFF3108272B62E8B6F
:105A9800A6F1080081B2400340EAD104A3B2072B63
:105AA80000F2BF82E0B28B2121FA00F0C00700F0BB
:105AB800B8824BF6F060C0F6000050F82300C8F832
:105AC8000009D00700D162B695F82220042A0ED02A
